:1000000000C100002EC100002CC100002AC1000068
:1000100028C1000026C1000024C1000022C1000048
:1000200020C100001EC100001CC100001AC1000058
:1000300018C1000016C1000014C1000012C1000068
:1000400010C100000EC100000CC100000AC1000078
:1000500008C1000006C1000004C100002AC500005C
:1000600000C1000099C500006EC50000FAC0000084
:10007000F8C00000F6C00000F4C00000F2C00000AC
:10008000F0C00000EEC00000ECC00000EAC00000BC
:10009000E8C00000E6C00000E4C00000B3C50000F6
:1000A000E0C00000DEC00000DCC00000DAC00000DC
:1000B000D8C00000D6C00000D4C00000D2C00000EC
:1000C000D0C00000CEC00000CCC00000CAC00000FC
:1000D000C8C00000C6C00000C4C00000C2C000000C
:1000E000C0C00000BD01C001AF01B301B701F701FD
:1000F000C401C801CE01D201D601DC01E001E40156
:10010000F701EA01EE01F2011F1C1F1E1F1E1F1F37
:100110001E1F1E1F00002200250028002B002E009D
:100120003100340002010000050108010B01050542
:100130000505070508080808020202020A0A08085D
:10014000040404040101010101010101030303038B
:1001500003030303040707070C0C0C0C0C0C0C0C1A
:100160000202020206060606060606060B0B0B0B2B
:100170000B0B0B0B01021020200808102040102050
:10018000408002010201080402010102040810205B
:100190004080804020100804020180040201804059
:1001A00020100804020108040201010204081020C2
:1001B0004080010204081020408000000A0B020960
:1001C0000C0D0E08070304010000000000000000F1
:1001D000000000000000000000000000000000001F
:1001E00000000000000012111000000000000000DC
:1001F00000000000000000000000000000000000FF
:10020000330711241FBECFEFD1E2DEBFCDBF00E028
:100210000CBF12E0A0E0B2E0ECE4F8E100E00BBFBC
:1002200002C007900D92AE39B107D9F724E0AEE9CC
:10023000B2E001C01D92A830B207E1F711E0C1E0C1
:10024000D1E000E006C021970109802FFE010E9445
:10025000CE09C030D10780E00807A9F73DD60C943D
:10026000240CCECE382F20915A039091590321327D
:1002700008F049C0809136038111FCCF42E04093E1
:100280003603309335033FEF30933403109233033A
:1002900020933203A9E3B3E042E153E0FA013E2F99
:1002A000341B321718F43D913193F9CF109211039A
:1002B00020911103990F922B9093110390911003A9
:1002C000913061F410921003909111039093BB0050
:1002D0009091BC0093FDF8CF95EC01C095EE909302
:1002E000BC00909136039230E1F3909134039F3F2C
:1002F00079F080913403803241F08091340380336F
:1003000031F084E005C081E003C082E001C083E0F9
:100310001092380310925A0310923703089590E018
:10032000FC01E654FE4F4491FC01EC58FE4F249131
:10033000FC01E25DFE4F9491992309F466C04423C9
:1003400009F455C050E0FA013197E231F10508F0A7
:100350004EC08827EE58FF4F8F4F0C94CE098091E6
:1003600080008F7707C0809180008F7D03C08091CF
:100370008000877F809380003AC084B58F7702C069
:1003800084B58F7D84BD33C08091B0008F7703C06A
:100390008091B0008F7D8093B00029C08091900043
:1003A0008F7707C0809190008F7D03C0809190006F
:1003B000877F809390001BC08091A0008F7707C03B
:1003C0008091A0008F7D03C08091A000877F8093E3
:1003D000A0000DC0809120018F7707C0809120017F
:1003E0008F7D03C080912001877F80932001E92FBA
:1003F000F0E0EE0FFF1FEC5EFE4FA591B4918FB7BA
:10040000F894EC912E2B2C938FBF08953FB7F8945E
:100410008091EA029091EB02A091EC02B091ED0282
:1004200026B5A89B05C02F3F19F00196A11DB11D4F
:100430003FBFBA2FA92F982F8827820F911DA11D8A
:10044000B11DBC01CD0142E0660F771F881F991FC7
:100450004A95D1F70895CF92DF92EF92FF920F93D2
:100460001F93CF93DF936C017A018B01C0E0D0E042
:10047000CE15DF0589F0D8016D918D01D601ED9182
:10048000FC910190F081E02DC6011995892B11F4A2
:100490007E0102C02196ECCFC701DF91CF911F9161
:1004A0000F91FF90EF90DF90CF900895FC01918D18
:1004B000828D981761F0828DDF01A80FB11D5D96C6
:1004C0008C91928D9F5F9F73928F90E008958FEF34
:1004D0009FEF0895FC01918D828D981731F0828DE8
:1004E000E80FF11D858D90E008958FEF9FEF08953F
:1004F000FC01918D228D892F90E0805C9F4F821BA3
:1005000091098F73992708958BE593E0F1DF21E03E
:10051000892B09F420E0822F0895FC01848DDF01EE
:10052000A80FB11DA35ABF4F2C91848D90E0019666
:100530008F739927848FA689B7892C93A089B18955
:100540008C9180648C93938D848D981306C002885F
:10055000F389E02D80818F7D80830895EF92FF9253
:100560000F931F93CF93DF93EC0181E0888F9B8DD6
:100570008C8D981305C0E889F989808185FD23C099
:10058000F62E0B8D10E00F5F1F4F0F731127E02E1B
:100590008C8DE8120BC00FB607FCFACFE889F989F9
:1005A000808185FFF5CFCE01B8DFF2CF8B8DFE01C4
:1005B000E80FF11DE35AFF4FF0820B8FEA89FB89A8
:1005C0008081806207C0EE89FF896083E889F989AC
:1005D00080818064808381E090E0DF91CF911F91E2
:1005E0000F91FF90EF900895CF93DF93EC01888DEA
:1005F0008823C1F0EA89FB89808185FD05C0A8892F
:10060000B9898C9186FD0EC00FB607FCF5CF8081AD
:1006100085FFF2CFA889B9898C9185FFEDCFCE01F6
:100620007CDFE8CFDF91CF91089580E090E0892BC7
:1006300019F06ADF811125C080E090E0892B41F03C
:1006400080E090E0892B21F00E94000081111CC005
:1006500080E090E0892B41F080E090E0892B21F050
:100660000E940000811113C080E090E0892BA1F06E
:1006700080E090E0892B81F00E94000081110AC087
:1006800008950E940000D8CF0E940000E1CF0E9490
:100690000000EACF0C94000008950895E091EF0265
:1006A0008091EE02E81730F4F0E0E051FD4F8081D8
:1006B00090E008958FEF9FEF08959091EF02809161
:1006C000EE02981750F4E92FF0E0E051FD4F208141
:1006D00030E09F5F9093EF0202C02FEF3FEFC90120
:1006E00008958091EE0290E02091EF02821B910923
:1006F000089585ED8093BC008091BC0084FDFCCF03
:100700001092360308954091C002262F30E0240F46
:10071000311D21323105DCF4209136032430C9F437
:10072000FC0180E090E0861758F43091C0022191DE
:10073000DC01A256BD4FA30FB11D2C930196F3CF40
:100740008091C002680F6093C00280E0089581E04C
:10075000089582E00895CF92DF92EF92FF920F9377
:100760001F93CF93DF937C01262F972F8A018091CF
:100770003703882391F0C62FD72F6E01C40ED51EE4
:10078000CC15DD0569F06991D701ED91FC910190DF
:10079000F081E02DC7011995F3CF642F822FB3DFCD
:1007A000C801DF91CF911F910F91FF90EF90DF90E3
:1007B000CF900895CF93DF931F92CDB7DEB76983B3
:1007C000209137032223D1F020915A03203240F0A8
:1007D00021E030E0FC013383228380E090E014C00C
:1007E00080913803E82FF0E0E75CFC4F998190831B
:1007F0008F5F8093380380935A0304C061E0CE0179
:10080000019681DF81E090E00F90DF91CF91089514
:10081000909136039111FCCF813208F080E291E093
:1008200090933603909335032FEF20933403109267
:100830003303280F209332039093110390911103F7
:10084000906D9093110390911003913061F4109288
:100850001003909111039093BB009091BC0093FD05
:10086000F8CF95EC01C095EE9093BC0090913603C3
:100870009130E1F390913303981710F48091330392
:10088000A2E1B3E020EF32E0F9019E2F921B98170E
:1008900018F49D919193F9CF1092EF028093EE029C
:1008A0000895CF93DF93009771F0FC010190002031
:1008B000E9F73197AF01481B590BBC018BE593E079
:1008C000CADDEC0102C0C0E0D0E042E050E06AE7DF
:1008D00072E08BE593E0BFDD8C0F9D1FDF91CF9120
:1008E000089575D7FC0180819181F5C50F931F9301
:1008F000CF93DF93EC0188819981009729F02A81B9
:100900003B812617370780F48B016F5F7F4F7BD6C3
:10091000009761F0998388831B830A832C813D8132
:10092000232B11F4FC01108281E001C080E0DF91F3
:10093000CF911F910F910895EF92FF920F931F9304
:10094000CF93DF93FC01248135816115710511F48A
:1009500080E017C04115510599F07B01EC018A0137
:10096000020F131FB801C2DF882391F32881398158
:100970008C819D81B701820F931F36D71D830C8315
:1009800081E0DF91CF911F910F91FF90EF9008953B
:100990006115710549F0FB0101900020E9F73197DD
:1009A000AF01461B570BC8CF80E00895FB0144817F
:1009B000558160817181C0CFEF92FF920F931F9399
:1009C000CF93DF93EC017B018A01BA018FDF28818D
:1009D000398181110CC02115310511F0C9017BD578
:1009E000198218821D821C821B821A8205C01D83F7
:1009F0000C83B701C901F8D6CE01DF91CF911F91C9
:100A00000F91FF90EF900895DF92EF92FF920F9376
:100A10001F93CF93DF93CDB7DEB72F970FB6F89420
:100A2000DEBF0FBECDBF8C01D62EFC01118210821D
:100A3000138212821582148240E050E06CE772E06B
:100A4000BBDFF9E0FD1520F06DE772E0C801A0DF23
:100A50001B861A861D861C861F861E864AE0CE01CE
:100A600001967C01BC018D2D90E0C5D6F701019067
:100A70000020E9F73197AF014E195F09B701CE01A8
:100A80000A969ADFBE01665F7F4FC8018FDFCE01F5
:100A90000A9628DFC8012F960FB6F894DEBF0FBE66
:100AA000CDBFDF91CF911F910F91FF90EF90DF901D
:100AB00008951F920F920FB60F9211242F933F9318
:100AC0008F939F93AF93BF938091E6029091E7023B
:100AD000A091E802B091E9023091E50223E0230FF2
:100AE0002D3720F40196A11DB11D05C026E8230F66
:100AF0000296A11DB11D2093E5028093E60290931A
:100B0000E702A093E802B093E9028091EA02909193
:100B1000EB02A091EC02B091ED020196A11DB11D76
:100B20008093EA029093EB02A093EC02B093ED0263
:100B3000BF91AF919F918F913F912F910F900FBED9
:100B40000F901F9018951F920F920FB60F921124BD
:100B50000BB60F922F933F934F935F936F937F93B7
:100B60008F939F93AF93BF93EF93FF938BE593E0A6
:100B7000D4DCFF91EF91BF91AF919F918F917F91C5
:100B80006F915F914F913F912F910F900BBE0F90FE
:100B90000FBE0F901F9018951F920F920FB60F92D5
:100BA00011240BB60F922F938F939F93EF93FF9384
:100BB000E0916B03F0916C038081E0917103F091FF
:100BC000720382FD12C09081809174038F5F8F73D6
:100BD00020917503821751F0E0917403F0E0E55A1B
:100BE000FC4F958F8093740301C08081FF91EF913A
:100BF0009F918F912F910F900BBE0F900FBE0F9072
:100C00001F9018951F920F920FB60F9211240BB6DA
:100C10000F922F933F934F935F936F937F938F9395
:100C20009F93AF93BF93EF93FF938091B900887F19
:100C3000803609F49CC068F5883209F45BC090F4F2
:100C4000803109F454C038F4882309F4F6C08830A0
:100C500009F44DC0F5C0883109F44CC0803209F464
:100C60005DC0EEC0803409F468C048F4803309F4F4
:100C700055C0883309F0E4C080933403D8C0803570
:100C800009F44FC0883509F45DC0883409F0D8C034
:100C9000D6C0883909F4C7C0A8F4883709F467C0FA
:100CA00038F4883609F463C0803709F460C0C8C0DE
:100CB000883809F4B8C0803909F45FC0803809F079
:100CC000BFC05BC0803B09F486C038F4803A09F4A9
:100CD00066C0883A09F47FC0B3C0803C09F4A7C05D
:100CE000883C09F4A4C0883B09F48AC0A9C080915B
:100CF000110310C09091330380913203981770F55F
:100D0000E091330381E08E0F80933303F0E0EE5ED9
:100D1000FC4F80818093BB0085EC86C080933403B8
:100D20008EC0E091330381E08E0F80933303809176
:100D3000BB00F0E0EE5EFC4F808390913303809126
:100D400032036EC0E091330381E08E0F8093330352
:100D50008091BB00F0E0EE5EFC4F80838091350314
:100D600081116DC081E08093100384EA61C083E04B
:100D7000809336031092E402CFCF8091E402803258
:100D800008F051C0E091E40281E08E0F8093E4020C
:100D90008091BB00F0E0EC53FD4F8083BDCF85EC2C
:100DA0008093BC00109236038091E402803230F4CC
:100DB000E091E402F0E0EC53FD4F10826091E40218
:100DC00070E0E091C202F091C30284EC92E01995C8
:100DD0001092E40235C084E0809336031092C10281
:100DE0001092C002E091BE02F091BF02199580916D
:100DF000C002811105C081E08093C00210929E0262
:100E0000E091C10281E08E0F8093C102F0E0E256D2
:100E1000FD4F80818093BB009091C1028091C00200
:100E2000981708F479CF85E88093BC0009C085EC59
:100E30008093BC001092360303C01092340359DC37
:100E4000FF91EF91BF91AF919F918F917F916F91A2
:100E50005F914F913F912F910F900BBE0F900FBE5E
:100E60000F901F901895EBE5F3E01382128288EE45
:100E700093E0A0E0B0E084839583A683B7832EE55A
:100E800032E03183208325EC30E03587248724EC61
:100E900030E03787268720EC30E0318B208B21EC47
:100EA00030E0338B228B22EC30E0358B248B26EC28
:100EB00030E0378B268B118E128E138E148EE8EF56
:100EC000F3E01382128284839583A683B7838EE630
:100ED00092E0918380830895CF93DF93CDB7DEB7FF
:100EE0002D970FB6F894DEBF0FBECDBF789484B5B2
:100EF000826084BD84B5816084BD85B5826085BD16
:100F000085B5816085BD80916E00816080936E00A3
:100F10001092810080918100826080938100809195
:100F20008100816080938100809180008160809346
:100F300080008091B10084608093B1008091B00006
:100F400081608093B00080919100826080939100D5
:100F500080919100816080939100809190008160E8
:100F6000809390008091A10082608093A100809185
:100F7000A10081608093A1008091A0008160809396
:100F8000A000809121018260809321018091210144
:100F900081608093210180912001816080932001F4
:100FA00080917A00846080937A0080917A008260D8
:100FB00080937A0080917A00816080937A0080919A
:100FC0007A00806880937A001092C100E0916B03F0
:100FD000F0916C0382E08083E0916703F0916803F5
:100FE0001082E0916903F0916A038FEC8083109284
:100FF0007303E0916F03F091700386E08083E091CA
:101000006D03F0916E03808180618083E0916D03B8
:10101000F0916E03808188608083E0916D03F09190
:101020006E03808180688083E0916D03F0916E0390
:1010300080818F7D80831092EF021092EE021092D9
:10104000380310925A031092360311E010933503BF
:101050001092100384E163D985E161D98091B900D0
:101060008E7F8093B9008091B9008D7F8093B90005
:1010700088E48093B80085E48093BC001093370324
:1010800088E6809359031092380310925A0362E065
:1010900088EF93E08FDB81E0E5D881E090E0B8DB7A
:1010A00088EF93E00ADB807E9927803E910519F452
:1010B0008FE792E0F6DB81E992E0F3DBFAEFBF2EF7
:1010C0008E010F5F1F4F88E091E033243394381A6C
:1010D000ADE68A2E9924939421E02093370388E685
:1010E000809359031092380310925A0363E088EFFB
:1010F00093E060DB81E0B6D887E090E089DB88EFA1
:1011000093E0DBDA8F77982F92959F70A82E9B9DA6
:10111000A00C112488EF93E0D0DA9C01332744E03F
:10112000359527954A95E1F7782EB29E700C1124DB
:1011300088EF93E0C2DA9C01332754E03595279578
:101140005A95E1F7682EB29E600C112488EF93E067
:10115000B4DAAC01552764E0559547956A95E1F7F7
:10116000282EB49E200C112488EF93E0A6DA88EF95
:1011700093E0A3DA9C01332774E0359527957A959F
:10118000E1F7482EB29E400C112488EF93E095DAE7
:101190009C013327E4E035952795EA95E1F7B29E67
:1011A000800D1124C82ED12C760120E3E21A28EFFD
:1011B000F20A198618861B861A861D861C8640E050
:1011C00050E06CE772E0CE010896F6DB4AE0B80129
:1011D000C70111D3F80101900020E9F73197AF0161
:1011E000401B510BB801CE010896A6DB68E972E0FE
:1011F000CE010896CDDB642DC80106DCB801CE0116
:101200000896D4DBC8016EDB68E972E0CE0108966F
:10121000BFDB622DC801F8DBB801CE010896C6DB42
:10122000C80160DB6AE972E0CE010896B1DB222DCD
:1012300030E0E8E0F1E0832D8E0F841528F48491EE
:10124000280F311D3196F7CF82E0841538F4C6019E
:1012500083709927892B11F42F5F3F4FC89CA00101
:10126000C99C500DD89C500D11248DECE81A87E0D4
:10127000F80AF694E794F694E794CA018E0D9F1D40
:101280000596820F931F67E070E074D02CE0289FD2
:10129000B001299F700D112460507E4FCE01089639
:1012A00077DB6AE972E0CE01089672DB662DC80131
:1012B000ABDBB801CE01089679DBC80113DB6CE922
:1012C00072E0CE01089664DB672DC8019DDBB80192
:1012D000CE0108966BDBC80105DB6CE972E0CE013C
:1012E000089656DB6A2DC8018FDBB801CE0108963F
:1012F0005DDBC801F7DA4C855D85688579858BE50E
:1013000093E0A9D842E050E06AE772E08BE593E011
:10131000A2D8CE010896E6DA42E050E06AE772E031
:101320008BE593E098D872D82B013C0198EBC92E3D
:101330009BE0D92EE12CF12C69D8DC01CB0184197A
:101340009509A609B709883E9340A105B10558F053
:1013500081E0C81AD108E108F10828EE420E23E026
:10136000521E611C711CC114D104E104F10421F767
:101370005CD9B2CEAA1BBB1B51E107C0AA1FBB1F81
:10138000A617B70710F0A61BB70B881F991F5A9511
:10139000A9F780959095BC01CD010895EE0FFF1F30
:1013A000881F8BBF0790F691E02D1994CF93DF93A0
:1013B0008230910510F482E090E0E0910604F09113
:1013C000070420E030E0C0E0D0E0309711F1408128
:1013D000518148175907C0F04817590761F48281B5
:1013E0009381209719F09B838A832BC090930704E5
:1013F0008093060426C02115310519F042175307C2
:1014000018F49A01BE01DF01EF010280F381E02DA3
:10141000DCCF2115310509F1281B390B24303105AA
:1014200090F412968D919C9113976115710521F09E
:10143000FB019383828304C0909307048093060486
:10144000FD01329644C0FD01E20FF31F8193919399
:10145000225031092D933C933AC0209104043091DD
:101460000504232B41F4209156023091570230930A
:101470000504209304042091540230915502211553
:10148000310541F42DB73EB74091580250915902B1
:10149000241B350BE0910404F0910504E217F307D7
:1014A000A0F42E1B3F0B2817390778F0AC014E5FD4
:1014B0005F4F2417350748F04E0F5F1F5093050408
:1014C000409304048193919302C0E0E0F0E0CF01E7
:1014D000DF91CF9108950F931F93CF93DF930097E0
:1014E00009F48CC0FC013297138212820091060429
:1014F000109107040115110581F420813181820FBB
:10150000931F20910404309105042817390779F5B9
:10151000F0930504E093040471C0D80140E050E06A
:10152000AE17BF0750F412962D913C911397AD0161
:101530002115310509F1D901F3CF9D01DA0133837A
:10154000228360817181860F971F8217930769F448
:10155000EC0128813981260F371F2E5F3F4F3183E1
:1015600020838A819B8193838283452B29F4F09386
:101570000704E093060442C01396FC93EE9312977F
:10158000ED01499159919E01240F351FE217F30790
:1015900071F480819181840F951F029611969C931E
:1015A0008E938281938113969C938E931297E0E0A1
:1015B000F0E0D80112968D919C911397009719F045
:1015C000F8018C01F6CF8D919C9198012E5F3F4FD1
:1015D000820F931F209104043091050428173907C6
:1015E00069F4309729F4109207041092060402C09F
:1015F000138212821093050400930404DF91CF91AB
:101600001F910F9108956F927F928F929F92AF9248
:10161000BF92CF92DF92EF92FF920F931F93CF93DF
:10162000DF93EC01009781F4CB01DF91CF911F9103
:101630000F91FF90EF90DF90CF90BF90AF909F9071
:101640008F907F906F90B2CEFC01E60FF71F9C0148
:1016500022503109E217F30708F4A8C0D9010D910F
:101660001C91119706171707A8F00530110508F40B
:101670009BC0C80104978617970708F495C00250CD
:101680001109061B170B019311936D937C93CF01E6
:1016900022DF8AC05B01A01AB10A4C01800E911EA4
:1016A000A0910604B091070440E050E0E12CF12C39
:1016B000109709F44AC0A815B905D1F56D907C9032
:1016C0001197630182E0C80ED11CCA14DB0480F1BB
:1016D000A3014A195B096A0182E0C80ED11C129667
:1016E000BC9012971396AC91B5E0CB16D10440F0A4
:1016F000B282A38351834083D9016D937C930AC046
:101700000E5F1F4FC301800F911FF90191838083EA
:10171000EB2DFA2FE114F10431F0D7011396FC936D
:10172000EE93129741C0F0930704E09306043CC087
:101730008D919C9111974817590708F4AC017D01D0
:1017400012960D90BC91A02DB3CF8091040490917E
:10175000050488159905E1F446175707C8F48091E8
:10176000540290915502009741F48DB79EB7409175
:10177000580250915902841B950BE817F907B0F4F1
:10178000F0930504E0930404F901718360830CC0B5
:10179000CB010CDE7C01009749F0A801BE011BD0F3
:1017A000CE0199DEC70104C0CE0102C080E090E006
:1017B000DF91CF911F910F91FF90EF90DF90CF902D
:1017C000BF90AF909F908F907F906F90089581E031
:1017D00090E0F89439C0FB01DC0102C001900D9249
:1017E00041505040D8F70895FB01DC0101900D9263
:1017F0000020E1F70895BB27FB015527AA27880F92
:10180000991FAA1FA41710F0A41B83955051B9F774
:10181000A05DAA3308F0A95DA193009779F7B111F3
:10182000B1931192CB0100C0DC01FC01672F7191D3
:101830007723E1F7329704C07C916D9370836291B6
:0C184000AE17BF07C8F30895F894FFCF5F
:10184C0053756E6461790000000000004D6F6E648A
:10185C0061790000000000005475657364617900C3
:10186C00000000005765646E6573646179000000C8
:10187C005468757273646179000000004672696483
:10188C006179000000000000536174757264617925
:10189C000000000000000804800000000000AE0200
:1018AC002B02780256026A02F40200000000DA03EE
:1018BC00AB0371035D034E034D030D0A0030005A58
:1018CC0065676172206E69652070726163756A6507
:0E18DC000073657475702E2E2E003B003A00CE
:00000001FF
