:1000000000C100002EC100002CC100002AC1000068
:1000100028C1000026C1000024C1000022C1000048
:1000200020C100001EC100001CC100001AC1000058
:1000300018C1000016C1000014C1000012C1000068
:1000400010C100000EC100000CC100000AC1000078
:1000500008C1000006C1000004C100002AC500005C
:1000600000C1000099C500006EC50000FAC0000084
:10007000F8C00000F6C00000F4C00000F2C00000AC
:10008000F0C00000EEC00000ECC00000EAC00000BC
:10009000E8C00000E6C00000E4C00000B3C50000F6
:1000A000E0C00000DEC00000DCC00000DAC00000DC
:1000B000D8C00000D6C00000D4C00000D2C00000EC
:1000C000D0C00000CEC00000CCC00000CAC00000FC
:1000D000C8C00000C6C00000C4C00000C2C000000C
:1000E000C0C00000BD01C001AF01B301B701F701FD
:1000F000C401C801CE01D201D601DC01E001E40156
:10010000F701EA01EE01F2011F1C1F1E1F1E1F1F37
:100110001E1F1E1F00002200250028002B002E009D
:100120003100340002010000050108010B01050542
:100130000505070508080808020202020A0A08085D
:10014000040404040101010101010101030303038B
:1001500003030303040707070C0C0C0C0C0C0C0C1A
:100160000202020206060606060606060B0B0B0B2B
:100170000B0B0B0B01021020200808102040102050
:10018000408002010201080402010102040810205B
:100190004080804020100804020180040201804059
:1001A00020100804020108040201010204081020C2
:1001B0004080010204081020408000000A0B020960
:1001C0000C0D0E08070304010000000000000000F1
:1001D000000000000000000000000000000000001F
:1001E00000000000000012111000000000000000DC
:1001F00000000000000000000000000000000000FF
:10020000330711241FBECFEFD1E2DEBFCDBF00E028
:100210000CBF12E0A0E0B2E0E0E5F8E100E00BBFC7
:1002200002C007900D92AE3AB107D9F724E0AEEACA
:10023000B2E001C01D92A831B207E1F711E0C1E0C0
:10024000D1E000E006C021970109802FFE010E9445
:10025000D009C030D10780E00807A9F73FD60C9439
:10026000260CCECE382F20916A039091690321325B
:1002700008F049C0809146038111FCCF42E04093D1
:100280004603309345033FEF3093440310924303FA
:1002900020934203A9E4B3E042E253E0FA013E2F87
:1002A000341B321718F43D913193F9CF109221038A
:1002B00020912103990F922B909321039091200379
:1002C000913061F410922003909121039093BB0030
:1002D0009091BC0093FDF8CF95EC01C095EE909302
:1002E000BC00909146039230E1F3909144039F3F0C
:1002F00079F080914403803241F08091440380334F
:1003000031F084E005C081E003C082E001C083E0F9
:100310001092480310926A0310924703089590E0E8
:10032000FC01E654FE4F4491FC01EC58FE4F249131
:10033000FC01E25DFE4F9491992309F466C04423C9
:1003400009F455C050E0FA013197E231F10508F0A7
:100350004EC08827EE58FF4F8F4F0C94D0098091E4
:1003600080008F7707C0809180008F7D03C08091CF
:100370008000877F809380003AC084B58F7702C069
:1003800084B58F7D84BD33C08091B0008F7703C06A
:100390008091B0008F7D8093B00029C08091900043
:1003A0008F7707C0809190008F7D03C0809190006F
:1003B000877F809390001BC08091A0008F7707C03B
:1003C0008091A0008F7D03C08091A000877F8093E3
:1003D000A0000DC0809120018F7707C0809120017F
:1003E0008F7D03C080912001877F80932001E92FBA
:1003F000F0E0EE0FFF1FEC5EFE4FA591B4918FB7BA
:10040000F894EC912E2B2C938FBF08953FB7F8945E
:100410008091FA029091FB02A091FC02B091FD0242
:1004200026B5A89B05C02F3F19F00196A11DB11D4F
:100430003FBFBA2FA92F982F8827820F911DA11D8A
:10044000B11DBC01CD0142E0660F771F881F991FC7
:100450004A95D1F70895CF92DF92EF92FF920F93D2
:100460001F93CF93DF936C017A018B01C0E0D0E042
:10047000CE15DF0589F0D8016D918D01D601ED9182
:10048000FC910190F081E02DC6011995892B11F4A2
:100490007E0102C02196ECCFC701DF91CF911F9161
:1004A0000F91FF90EF90DF90CF900895FC01918D18
:1004B000828D981761F0828DDF01A80FB11D5D96C6
:1004C0008C91928D9F5F9F73928F90E008958FEF34
:1004D0009FEF0895FC01918D828D981731F0828DE8
:1004E000E80FF11D858D90E008958FEF9FEF08953F
:1004F000FC01918D228D892F90E0805C9F4F821BA3
:1005000091098F739927089587E793E0F1DF21E040
:10051000892B09F420E0822F0895FC01848DDF01EE
:10052000A80FB11DA35ABF4F2C91848D90E0019666
:100530008F739927848FA689B7892C93A089B18955
:100540008C9180648C93938D848D981306C002885F
:10055000F389E02D80818F7D80830895EF92FF9253
:100560000F931F93CF93DF93EC0181E0888F9B8DD6
:100570008C8D981305C0E889F989808185FD23C099
:10058000F62E0B8D10E00F5F1F4F0F731127E02E1B
:100590008C8DE8120BC00FB607FCFACFE889F989F9
:1005A000808185FFF5CFCE01B8DFF2CF8B8DFE01C4
:1005B000E80FF11DE35AFF4FF0820B8FEA89FB89A8
:1005C0008081806207C0EE89FF896083E889F989AC
:1005D00080818064808381E090E0DF91CF911F91E2
:1005E0000F91FF90EF900895CF93DF93EC01888DEA
:1005F0008823C1F0EA89FB89808185FD05C0A8892F
:10060000B9898C9186FD0EC00FB607FCF5CF8081AD
:1006100085FFF2CFA889B9898C9185FFEDCFCE01F6
:100620007CDFE8CFDF91CF91089580E090E0892BC7
:1006300019F06ADF811125C080E090E0892B41F03C
:1006400080E090E0892B21F00E94000081111CC005
:1006500080E090E0892B41F080E090E0892B21F050
:100660000E940000811113C080E090E0892BA1F06E
:1006700080E090E0892B81F00E94000081110AC087
:1006800008950E940000D8CF0E940000E1CF0E9490
:100690000000EACF0C94000008950895E091FF0255
:1006A0008091FE02E81730F4F0E0E050FD4F8081C9
:1006B00090E008958FEF9FEF08959091FF02809151
:1006C000FE02981750F4E92FF0E0E050FD4F208132
:1006D00030E09F5F9093FF0202C02FEF3FEFC90110
:1006E00008958091FE0290E02091FF02821B910903
:1006F000089585ED8093BC008091BC0084FDFCCF03
:100700001092460308954091D002262F30E0240F26
:10071000311D21323105DCF4209146032430C9F427
:10072000FC0180E090E0861758F43091D0022191CE
:10073000DC01A255BD4FA30FB11D2C930196F3CF41
:100740008091D002680F6093D00280E0089581E02C
:10075000089582E00895CF92DF92EF92FF920F9377
:100760001F93CF93DF937C01262F972F8A018091CF
:100770004703882391F0C62FD72F6E01C40ED51ED4
:10078000CC15DD0569F06991D701ED91FC910190DF
:10079000F081E02DC7011995F3CF642F822FB3DFCD
:1007A000C801DF91CF911F910F91FF90EF90DF90E3
:1007B000CF900895CF93DF931F92CDB7DEB76983B3
:1007C000209147032223D1F020916A03203240F088
:1007D00021E030E0FC013383228380E090E014C00C
:1007E00080914803E82FF0E0E75BFC4F998190830C
:1007F0008F5F8093480380936A0304C061E0CE0159
:10080000019681DF81E090E00F90DF91CF91089514
:10081000909146039111FCCF813208F080E291E083
:1008200090934603909345032FEF20934403109237
:100830004303280F209342039093210390912103B7
:10084000906D9093210390912003913061F4109268
:100850002003909121039093BB009091BC0093FDE5
:10086000F8CF95EC01C095EE9093BC0090914603B3
:100870009130E1F390914303981710F48091430372
:10088000A2E2B3E020E033E0F9019E2F921B98171B
:1008900018F49D919193F9CF1092FF028093FE027C
:1008A0000895CF93DF93009771F0FC010190002031
:1008B000E9F73197AF01481B590BBC0187E793E07B
:1008C000CADDEC0102C0C0E0D0E042E050E06AE7DF
:1008D00072E087E793E0BFDD8C0F9D1FDF91CF9122
:1008E000089577D7FC0180819181F7C50F931F93FD
:1008F000CF93DF93EC0188819981009729F02A81B9
:100900003B812617370780F48B016F5F7F4F7DD6C1
:10091000009761F0998388831B830A832C813D8132
:10092000232B11F4FC01108281E001C080E0DF91F3
:10093000CF911F910F910895EF92FF920F931F9304
:10094000CF93DF93FC01248135816115710511F48A
:1009500080E017C04115510599F07B01EC018A0137
:10096000020F131FB801C2DF882391F32881398158
:100970008C819D81B701820F931F38D71D830C8313
:1009800081E0DF91CF911F910F91FF90EF9008953B
:100990006115710549F0FB0101900020E9F73197DD
:1009A000AF01461B570BC8CF80E00895FB0144817F
:1009B000558160817181C0CFEF92FF920F931F9399
:1009C000CF93DF93EC017B018A01BA018FDF28818D
:1009D000398181110CC02115310511F0C9017DD576
:1009E000198218821D821C821B821A8205C01D83F7
:1009F0000C83B701C901FAD6CE01DF91CF911F91C7
:100A00000F91FF90EF900895DF92EF92FF920F9376
:100A10001F93CF93DF93CDB7DEB72F970FB6F89420
:100A2000DEBF0FBECDBF8C01D62EFC01118210821D
:100A3000138212821582148240E050E06CE772E06B
:100A4000BBDFF9E0FD1520F06DE772E0C801A0DF23
:100A50001B861A861D861C861F861E864AE0CE01CE
:100A600001967C01BC018D2D90E0C7D6F701019065
:100A70000020E9F73197AF014E195F09B701CE01A8
:100A80000A969ADFBE01665F7F4FC8018FDFCE01F5
:100A90000A9628DFC8012F960FB6F894DEBF0FBE66
:100AA000CDBFDF91CF911F910F91FF90EF90DF901D
:100AB00008951F920F920FB60F9211242F933F9318
:100AC0008F939F93AF93BF938091F6029091F7021B
:100AD000A091F802B091F9023091F50223E0230FC2
:100AE0002D3720F40196A11DB11D05C026E8230F66
:100AF0000296A11DB11D2093F5028093F6029093FA
:100B0000F702A093F802B093F9028091FA02909153
:100B1000FB02A091FC02B091FD020196A11DB11D46
:100B20008093FA029093FB02A093FC02B093FD0223
:100B3000BF91AF919F918F913F912F910F900FBED9
:100B40000F901F9018951F920F920FB60F921124BD
:100B50000BB60F922F933F934F935F936F937F93B7
:100B60008F939F93AF93BF93EF93FF9387E793E0A8
:100B7000D4DCFF91EF91BF91AF919F918F917F91C5
:100B80006F915F914F913F912F910F900BBE0F90FE
:100B90000FBE0F901F9018951F920F920FB60F92D5
:100BA00011240BB60F922F938F939F93EF93FF9384
:100BB000E0918703F09188038081E0918D03F091AB
:100BC0008E0382FD12C09081809190038F5F8F739E
:100BD00020919103821751F0E0919003F0E0E958E1
:100BE000FC4F958F8093900301C08081FF91EF911E
:100BF0009F918F912F910F900BBE0F900FBE0F9072
:100C00001F9018951F920F920FB60F9211240BB6DA
:100C10000F922F933F934F935F936F937F938F9395
:100C20009F93AF93BF93EF93FF938091B900887F19
:100C3000803609F49CC068F5883209F45BC090F4F2
:100C4000803109F454C038F4882309F4F6C08830A0
:100C500009F44DC0F5C0883109F44CC0803209F464
:100C60005DC0EEC0803409F468C048F4803309F4F4
:100C700055C0883309F0E4C080934403D8C0803560
:100C800009F44FC0883509F45DC0883409F0D8C034
:100C9000D6C0883909F4C7C0A8F4883709F467C0FA
:100CA00038F4883609F463C0803709F460C0C8C0DE
:100CB000883809F4B8C0803909F45FC0803809F079
:100CC000BFC05BC0803B09F486C038F4803A09F4A9
:100CD00066C0883A09F47FC0B3C0803C09F4A7C05D
:100CE000883C09F4A4C0883B09F48AC0A9C080915B
:100CF000210310C09091430380914203981770F52F
:100D0000E091430381E08E0F80934303F0E0EE5DBA
:100D1000FC4F80818093BB0085EC86C080934403A8
:100D20008EC0E091430381E08E0F80934303809156
:100D3000BB00F0E0EE5DFC4F808390914303809117
:100D400042036EC0E091430381E08E0F8093430322
:100D50008091BB00F0E0EE5DFC4F80838091450305
:100D600081116DC081E08093200384EA61C083E03B
:100D7000809346031092F402CFCF8091F402803228
:100D800008F051C0E091F40281E08E0F8093F402EC
:100D90008091BB00F0E0EC52FD4F8083BDCF85EC2D
:100DA0008093BC00109246038091F402803230F4AC
:100DB000E091F402F0E0EC52FD4F10826091F402F9
:100DC00070E0E091D202F091D30284ED92E01995A7
:100DD0001092F40235C084E0809346031092D10251
:100DE0001092D002E091CE02F091CF02199580913D
:100DF000D002811105C081E08093D0021092AE0232
:100E0000E091D10281E08E0F8093D102F0E0E255B3
:100E1000FD4F80818093BB009091D1028091D002E0
:100E2000981708F479CF85E88093BC0009C085EC59
:100E30008093BC001092460303C01092440359DC17
:100E4000FF91EF91BF91AF919F918F917F916F91A2
:100E50005F914F913F912F910F900BBE0F900FBE5E
:100E60000F901F901895E7E7F3E01382128288EE47
:100E700093E0A0E0B0E084839583A683B7832EE55A
:100E800032E03183208325EC30E03587248724EC61
:100E900030E03787268720EC30E0318B208B21EC47
:100EA00030E0338B228B22EC30E0358B248B26EC28
:100EB00030E0378B268B118E128E138E148EEBE65C
:100EC000F3E01382128284839583A683B7838EE630
:100ED00092E0918380838FE792E0E3CCCF93DF931E
:100EE000CDB7DEB72D970FB6F894DEBF0FBECDBFDE
:100EF000789484B5826084BD84B5816084BD85B5F5
:100F0000826085BD85B5816085BD80916E00816000
:100F100080936E00109281008091810082608093A6
:100F200081008091810081608093810080918000A8
:100F30008160809380008091B10084608093B100D3
:100F40008091B00081608093B000809191008260B8
:100F500080939100809191008160809391008091B5
:100F600090008160809390008091A10082608093C6
:100F7000A1008091A10081608093A1008091A000D8
:100F800081608093A0008091210182608093210183
:100F900080912101816080932101809120018160F5
:100FA0008093200180917A00846080937A00809100
:100FB0007A00826080937A0080917A0081608093C9
:100FC0007A0080917A00806880937A001092C10044
:100FD000E0918703F091880382E08083E0918303AE
:100FE000F09184031082E0918503F09186038FECE9
:100FF000808310928F03E0918B03F0918C0386E045
:101000008083E0918903F0918A03808180618083ED
:10101000E0918903F0918A03808188608083E09168
:101020008903F0918A03808180688083E09189033D
:10103000F0918A0380818F7D80831092FF0210924D
:10104000FE021092480310926A031092460311E0C8
:10105000109345031092200384E161D985E15FD9A3
:101060008091B9008E7F8093B9008091B9008D7F07
:101070008093B90088E48093B80085E48093BC0035
:101080001093470388E680936903109248031092F7
:101090006A0362E08BE693E08DDB81E0E3D881E0D8
:1010A00090E0B6DB8BE693E008DB807E9927803EFC
:1010B000910519F48EE892E0F4DB80EA92E0F1DB2E
:1010C000FAEFBF2E8E010F5F1F4F88E091E03324AF
:1010D0003394381AADE68A2E9924939421E0209314
:1010E000470388E6809369031092480310926A03CD
:1010F00063E08BE693E05EDB81E0B4D887E090E0CC
:1011000087DB8BE693E0D9DA8F77982F92959F70E3
:10111000A82E9B9DA00C11248BE693E0CEDA9C01B7
:10112000332744E0359527954A95E1F7782EB29E0E
:10113000700C11248BE693E0C0DA9C01332754E055
:10114000359527955A95E1F7682EB29E600C1124CB
:101150008BE693E0B2DAAC01552764E055954795EC
:101160006A95E1F7282EB49E200C11248BE693E0BB
:10117000A4DA8BE693E0A1DA9C01332774E035957D
:1011800027957A95E1F7482EB29E400C11248BE604
:1011900093E093DA9C013327E4E035952795EA95AF
:1011A000E1F7B29E800D1124C82ED12C760120E3E8
:1011B000E21A28EFF20A198618861B861A861D86FF
:1011C0001C8640E050E06CE772E0CE010896F4DB4C
:1011D0004AE0B801C70111D3F80101900020E9F7F6
:1011E0003197AF01401B510BB801CE010896A4DB2B
:1011F00067EA72E0CE010896CBDB642DC80104DCFF
:10120000B801CE010896D2DBC8016CDB67EA72E058
:10121000CE010896BDDB622DC801F6DBB801CE0118
:101220000896C4DBC8015EDB69EA72E0CE0108966D
:10123000AFDB222D30E0E8E0F1E0832D8E0F841546
:1012400028F48491280F311D3196F7CF82E0841560
:1012500038F4C60183709927892B11F42F5F3F4F13
:10126000C89CA001C99C500DD89C500D11248DEC38
:10127000E81A87E0F80AF694E794F694E794CA012E
:101280008E0D9F1D0596820F931F67E070E074D04E
:101290002CE0289FB001299F700D112460507E4FD3
:1012A000CE01089675DB69EA72E0CE01089670DB24
:1012B000662DC801A9DBB801CE01089677DBC8010D
:1012C00011DB6BEA72E0CE01089662DB672DC80184
:1012D0009BDBB801CE01089669DBC80103DB6BEA32
:1012E00072E0CE01089654DB6A2DC8018DDBB8018F
:1012F000CE0108965BDBC801F5DA4C855D85688513
:10130000798587E793E0A7D842E050E06AE772E08A
:1013100087E793E0A0D8CE010896E4DA42E050E0F7
:101320006AE772E087E793E096D870D82B013C011A
:1013300098EBC92E9BE0D92EE12CF12C67D8DC016B
:10134000CB0184199509A609B709883E9340A105E8
:10135000B10558F081E0C81AD108E108F10828EE7B
:10136000420E23E0521E611C711CC114D104E10421
:10137000F10421F75AD9B2CEAA1BBB1B51E107C019
:10138000AA1FBB1FA617B70710F0A61BB70B881F15
:10139000991F5A95A9F780959095BC01CD010895A4
:1013A000EE0FFF1F881F8BBF0790F691E02D199459
:1013B000CF93DF938230910510F482E090E0E091CA
:1013C0001604F091170420E030E0C0E0D0E0309740
:1013D00011F14081518148175907C0F0481759074A
:1013E00061F482819381209719F09B838A832BC0BB
:1013F000909317048093160426C02115310519F027
:101400004217530718F49A01BE01DF01EF01028071
:10141000F381E02DDCCF2115310509F1281B390BB3
:101420002430310590F412968D919C91139761159B
:10143000710521F0FB019383828304C0909317040C
:1014400080931604FD01329644C0FD01E20FF31FA4
:1014500081939193225031092D933C933AC020916E
:10146000140430911504232B41F42091560230913D
:1014700057023093150420931404209154023091A4
:1014800055022115310541F42DB73EB74091580260
:1014900050915902241B350BE0911404F09115046E
:1014A000E217F307A0F42E1B3F0B2817390778F03B
:1014B000AC014E5F5F4F2417350748F04E0F5F1F9A
:1014C00050931504409314048193919302C0E0E07B
:1014D000F0E0CF01DF91CF9108950F931F93CF9349
:1014E000DF93009709F48CC0FC01329713821282BB
:1014F00000911604109117040115110581F4208143
:101500003181820F931F2091140430911504281704
:10151000390779F5F0931504E093140471C0D801EC
:1015200040E050E0AE17BF0750F412962D913C9169
:101530001397AD012115310509F1D901F3CF9D01B3
:10154000DA013383228360817181860F971F8217AE
:10155000930769F4EC0128813981260F371F2E5F2C
:101560003F4F318320838A819B8193838283452BE4
:1015700029F4F0931704E093160442C01396FC93E9
:10158000EE931297ED01499159919E01240F351F59
:10159000E217F30771F480819181840F951F029601
:1015A00011969C938E938281938113969C938E9334
:1015B0001297E0E0F0E0D80112968D919C9113977C
:1015C000009719F0F8018C01F6CF8D919C9198014C
:1015D0002E5F3F4F820F931F20911404309115040A
:1015E0002817390769F4309729F4109217041092DC
:1015F000160402C01382128210931504009314047F
:10160000DF91CF911F910F9108956F927F928F92EA
:101610009F92AF92BF92CF92DF92EF92FF920F9381
:101620001F93CF93DF93EC01009781F4CB01DF91FF
:10163000CF911F910F91FF90EF90DF90CF90BF90CF
:10164000AF909F908F907F906F90B2CEFC01E60F8D
:10165000F71F9C0122503109E217F30708F4A8C0D4
:10166000D9010D911C91119706171707A8F00530A5
:10167000110508F49BC0C80104978617970708F462
:1016800095C002501109061B170B019311936D931E
:101690007C93CF0122DF8AC05B01A01AB10A4C0102
:1016A000800E911EA0911604B091170440E050E006
:1016B000E12CF12C109709F44AC0A815B905D1F511
:1016C0006D907C901197630182E0C80ED11CCA1402
:1016D000DB0480F1A3014A195B096A0182E0C80EAC
:1016E000D11C1296BC9012971396AC91B5E0CB1614
:1016F000D10440F0B282A38351834083D9016D931A
:101700007C930AC00E5F1F4FC301800F911FF90128
:1017100091838083EB2DFA2FE114F10431F0D7018E
:101720001396FC93EE93129741C0F0931704E09345
:1017300016043CC08D919C9111974817590708F4E5
:10174000AC017D0112960D90BC91A02DB3CF80917C
:1017500014049091150488159905E1F4461757076C
:10176000C8F48091540290915502009741F48DB7CE
:101770009EB74091580250915902841B950BE8176F
:10178000F907B0F4F0931504E0931404F9017183A0
:1017900060830CC0CB010CDE7C01009749F0A801EE
:1017A000BE011BD0CE0199DEC70104C0CE0102C02C
:1017B00080E090E0DF91CF911F910F91FF90EF902B
:1017C000DF90CF90BF90AF909F908F907F906F9061
:1017D000089581E090E0F89439C0FB01DC0102C07B
:1017E00001900D9241505040D8F70895FB01DC0163
:1017F00001900D920020E1F70895BB27FB015527CA
:10180000AA27880F991FAA1FA41710F0A41B83955D
:101810005051B9F7A05DAA3308F0A95DA1930097D4
:1018200079F7B111B1931192CB0100C0DC01FC0139
:10183000672F71917723E1F7329704C07C916D9304
:1018400070836291AE17BF07C8F30895F894FFCF75
:1018500053756E6461790000000000004D6F6E6486
:1018600061790000000000005475657364617900BF
:10187000000000005765646E6573646179000000C4
:10188000546875727364617900000000467269647F
:101890006179000000000000536174757264617921
:1018A0000000000000001804800000000000AE02EC
:1018B0002B02780256026A02F40200000000DA03EA
:1018C000AB0371035D034E034D030D0A0030004B63
:1018D0004F6E737472756B746F722E2E2E005A6574
:1018E000676172206E69652070726163756A650058
:0E18F00073657475702E2E2E003B003A0000BA
:00000001FF
